{
	"_format": "hh-sol-artifact-1",
	"contractName": "MyEpicGame",
	"sourceName": "contracts/MyEpicGame.sol",
	"abi": [
		{
			"inputs": [
				{
					"internalType": "string[]",
					"name": "names",
					"type": "string[]"
				},
				{
					"internalType": "string[]",
					"name": "imageURIs",
					"type": "string[]"
				},
				{
					"internalType": "uint256[]",
					"name": "hps",
					"type": "uint256[]"
				},
				{
					"internalType": "uint256[]",
					"name": "attackDamages",
					"type": "uint256[]"
				},
				{
					"internalType": "string",
					"name": "bossName",
					"type": "string"
				},
				{
					"internalType": "string",
					"name": "bossImageURI",
					"type": "string"
				},
				{
					"internalType": "uint256",
					"name": "bossHp",
					"type": "uint256"
				},
				{
					"internalType": "uint256",
					"name": "bossAttackDamage",
					"type": "uint256"
				}
			],
			"stateMutability": "nonpayable",
			"type": "constructor"
		},
		{
			"anonymous": false,
			"inputs": [
				{
					"indexed": true,
					"internalType": "address",
					"name": "owner",
					"type": "address"
				},
				{
					"indexed": true,
					"internalType": "address",
					"name": "approved",
					"type": "address"
				},
				{
					"indexed": true,
					"internalType": "uint256",
					"name": "tokenId",
					"type": "uint256"
				}
			],
			"name": "Approval",
			"type": "event"
		},
		{
			"anonymous": false,
			"inputs": [
				{
					"indexed": true,
					"internalType": "address",
					"name": "owner",
					"type": "address"
				},
				{
					"indexed": true,
					"internalType": "address",
					"name": "operator",
					"type": "address"
				},
				{
					"indexed": false,
					"internalType": "bool",
					"name": "approved",
					"type": "bool"
				}
			],
			"name": "ApprovalForAll",
			"type": "event"
		},
		{
			"anonymous": false,
			"inputs": [
				{
					"indexed": false,
					"internalType": "uint256",
					"name": "newBossHp",
					"type": "uint256"
				},
				{
					"indexed": false,
					"internalType": "uint256",
					"name": "newPlayerHp",
					"type": "uint256"
				}
			],
			"name": "AttackComplete",
			"type": "event"
		},
		{
			"anonymous": false,
			"inputs": [
				{
					"indexed": false,
					"internalType": "address",
					"name": "sender",
					"type": "address"
				},
				{
					"indexed": false,
					"internalType": "uint256",
					"name": "tokenId",
					"type": "uint256"
				},
				{
					"indexed": false,
					"internalType": "uint256",
					"name": "characterIndex",
					"type": "uint256"
				}
			],
			"name": "CharacterNFTMinted",
			"type": "event"
		},
		{
			"anonymous": false,
			"inputs": [
				{
					"indexed": true,
					"internalType": "address",
					"name": "from",
					"type": "address"
				},
				{
					"indexed": true,
					"internalType": "address",
					"name": "to",
					"type": "address"
				},
				{
					"indexed": true,
					"internalType": "uint256",
					"name": "tokenId",
					"type": "uint256"
				}
			],
			"name": "Transfer",
			"type": "event"
		},
		{
			"inputs": [
				{
					"internalType": "address",
					"name": "to",
					"type": "address"
				},
				{
					"internalType": "uint256",
					"name": "tokenId",
					"type": "uint256"
				}
			],
			"name": "approve",
			"outputs": [],
			"stateMutability": "nonpayable",
			"type": "function"
		},
		{
			"inputs": [],
			"name": "attackBoss",
			"outputs": [],
			"stateMutability": "nonpayable",
			"type": "function"
		},
		{
			"inputs": [
				{
					"internalType": "address",
					"name": "owner",
					"type": "address"
				}
			],
			"name": "balanceOf",
			"outputs": [
				{
					"internalType": "uint256",
					"name": "",
					"type": "uint256"
				}
			],
			"stateMutability": "view",
			"type": "function"
		},
		{
			"inputs": [],
			"name": "bigBoss",
			"outputs": [
				{
					"internalType": "string",
					"name": "name",
					"type": "string"
				},
				{
					"internalType": "string",
					"name": "imageURI",
					"type": "string"
				},
				{
					"internalType": "uint256",
					"name": "hp",
					"type": "uint256"
				},
				{
					"internalType": "uint256",
					"name": "maxHp",
					"type": "uint256"
				},
				{
					"internalType": "uint256",
					"name": "attackDamage",
					"type": "uint256"
				}
			],
			"stateMutability": "view",
			"type": "function"
		},
		{
			"inputs": [],
			"name": "checkIfUserHasNFT",
			"outputs": [
				{
					"components": [
						{
							"internalType": "uint256",
							"name": "characterIndex",
							"type": "uint256"
						},
						{
							"internalType": "string",
							"name": "name",
							"type": "string"
						},
						{
							"internalType": "string",
							"name": "imageURI",
							"type": "string"
						},
						{
							"internalType": "uint256",
							"name": "hp",
							"type": "uint256"
						},
						{
							"internalType": "uint256",
							"name": "maxHp",
							"type": "uint256"
						},
						{
							"internalType": "uint256",
							"name": "attackDamage",
							"type": "uint256"
						}
					],
					"internalType": "struct MyEpicGame.CharacterAttributes",
					"name": "",
					"type": "tuple"
				}
			],
			"stateMutability": "view",
			"type": "function"
		},
		{
			"inputs": [
				{
					"internalType": "uint256",
					"name": "tokenId",
					"type": "uint256"
				}
			],
			"name": "getApproved",
			"outputs": [
				{
					"internalType": "address",
					"name": "",
					"type": "address"
				}
			],
			"stateMutability": "view",
			"type": "function"
		},
		{
			"inputs": [],
			"name": "getBigBoss",
			"outputs": [
				{
					"components": [
						{
							"internalType": "string",
							"name": "name",
							"type": "string"
						},
						{
							"internalType": "string",
							"name": "imageURI",
							"type": "string"
						},
						{
							"internalType": "uint256",
							"name": "hp",
							"type": "uint256"
						},
						{
							"internalType": "uint256",
							"name": "maxHp",
							"type": "uint256"
						},
						{
							"internalType": "uint256",
							"name": "attackDamage",
							"type": "uint256"
						}
					],
					"internalType": "struct MyEpicGame.BigBoss",
					"name": "",
					"type": "tuple"
				}
			],
			"stateMutability": "view",
			"type": "function"
		},
		{
			"inputs": [],
			"name": "getDefaultCharacters",
			"outputs": [
				{
					"components": [
						{
							"internalType": "uint256",
							"name": "characterIndex",
							"type": "uint256"
						},
						{
							"internalType": "string",
							"name": "name",
							"type": "string"
						},
						{
							"internalType": "string",
							"name": "imageURI",
							"type": "string"
						},
						{
							"internalType": "uint256",
							"name": "hp",
							"type": "uint256"
						},
						{
							"internalType": "uint256",
							"name": "maxHp",
							"type": "uint256"
						},
						{
							"internalType": "uint256",
							"name": "attackDamage",
							"type": "uint256"
						}
					],
					"internalType": "struct MyEpicGame.CharacterAttributes[]",
					"name": "",
					"type": "tuple[]"
				}
			],
			"stateMutability": "view",
			"type": "function"
		},
		{
			"inputs": [
				{
					"internalType": "address",
					"name": "owner",
					"type": "address"
				},
				{
					"internalType": "address",
					"name": "operator",
					"type": "address"
				}
			],
			"name": "isApprovedForAll",
			"outputs": [
				{
					"internalType": "bool",
					"name": "",
					"type": "bool"
				}
			],
			"stateMutability": "view",
			"type": "function"
		},
		{
			"inputs": [
				{
					"internalType": "uint256",
					"name": "_characterIndex",
					"type": "uint256"
				}
			],
			"name": "mintCharacterNFT",
			"outputs": [],
			"stateMutability": "nonpayable",
			"type": "function"
		},
		{
			"inputs": [],
			"name": "name",
			"outputs": [
				{
					"internalType": "string",
					"name": "",
					"type": "string"
				}
			],
			"stateMutability": "view",
			"type": "function"
		},
		{
			"inputs": [
				{
					"internalType": "uint256",
					"name": "",
					"type": "uint256"
				}
			],
			"name": "nftHolderAttributes",
			"outputs": [
				{
					"internalType": "uint256",
					"name": "characterIndex",
					"type": "uint256"
				},
				{
					"internalType": "string",
					"name": "name",
					"type": "string"
				},
				{
					"internalType": "string",
					"name": "imageURI",
					"type": "string"
				},
				{
					"internalType": "uint256",
					"name": "hp",
					"type": "uint256"
				},
				{
					"internalType": "uint256",
					"name": "maxHp",
					"type": "uint256"
				},
				{
					"internalType": "uint256",
					"name": "attackDamage",
					"type": "uint256"
				}
			],
			"stateMutability": "view",
			"type": "function"
		},
		{
			"inputs": [
				{
					"internalType": "address",
					"name": "",
					"type": "address"
				}
			],
			"name": "nftHolders",
			"outputs": [
				{
					"internalType": "uint256",
					"name": "",
					"type": "uint256"
				}
			],
			"stateMutability": "view",
			"type": "function"
		},
		{
			"inputs": [
				{
					"internalType": "uint256",
					"name": "tokenId",
					"type": "uint256"
				}
			],
			"name": "ownerOf",
			"outputs": [
				{
					"internalType": "address",
					"name": "",
					"type": "address"
				}
			],
			"stateMutability": "view",
			"type": "function"
		},
		{
			"inputs": [
				{
					"internalType": "address",
					"name": "from",
					"type": "address"
				},
				{
					"internalType": "address",
					"name": "to",
					"type": "address"
				},
				{
					"internalType": "uint256",
					"name": "tokenId",
					"type": "uint256"
				}
			],
			"name": "safeTransferFrom",
			"outputs": [],
			"stateMutability": "nonpayable",
			"type": "function"
		},
		{
			"inputs": [
				{
					"internalType": "address",
					"name": "from",
					"type": "address"
				},
				{
					"internalType": "address",
					"name": "to",
					"type": "address"
				},
				{
					"internalType": "uint256",
					"name": "tokenId",
					"type": "uint256"
				},
				{
					"internalType": "bytes",
					"name": "_data",
					"type": "bytes"
				}
			],
			"name": "safeTransferFrom",
			"outputs": [],
			"stateMutability": "nonpayable",
			"type": "function"
		},
		{
			"inputs": [
				{
					"internalType": "address",
					"name": "operator",
					"type": "address"
				},
				{
					"internalType": "bool",
					"name": "approved",
					"type": "bool"
				}
			],
			"name": "setApprovalForAll",
			"outputs": [],
			"stateMutability": "nonpayable",
			"type": "function"
		},
		{
			"inputs": [
				{
					"internalType": "bytes4",
					"name": "interfaceId",
					"type": "bytes4"
				}
			],
			"name": "supportsInterface",
			"outputs": [
				{
					"internalType": "bool",
					"name": "",
					"type": "bool"
				}
			],
			"stateMutability": "view",
			"type": "function"
		},
		{
			"inputs": [],
			"name": "symbol",
			"outputs": [
				{
					"internalType": "string",
					"name": "",
					"type": "string"
				}
			],
			"stateMutability": "view",
			"type": "function"
		},
		{
			"inputs": [
				{
					"internalType": "uint256",
					"name": "_tokenId",
					"type": "uint256"
				}
			],
			"name": "tokenURI",
			"outputs": [
				{
					"internalType": "string",
					"name": "",
					"type": "string"
				}
			],
			"stateMutability": "view",
			"type": "function"
		},
		{
			"inputs": [
				{
					"internalType": "address",
					"name": "from",
					"type": "address"
				},
				{
					"internalType": "address",
					"name": "to",
					"type": "address"
				},
				{
					"internalType": "uint256",
					"name": "tokenId",
					"type": "uint256"
				}
			],
			"name": "transferFrom",
			"outputs": [],
			"stateMutability": "nonpayable",
			"type": "function"
		}
	],
	"bytecode": "0x60806040523480156200001157600080fd5b506040516200562138038062005621833981810160405281019062000037919062000a84565b6040518060400160405280600581526020017f44617262790000000000000000000000000000000000000000000000000000008152506040518060400160405280600681526020017f50524554545900000000000000000000000000000000000000000000000000008152508160009080519060200190620000bb929190620007ec565b508060019080519060200190620000d4929190620007ec565b50505060005b8851811015620004f25760076040518060c001604052808381526020018b848151811062000131577f4e487b7100000000000000000000000000000000000000000000000000000000600052603260045260246000fd5b602002602001015181526020018a848151811062000178577f4e487b7100000000000000000000000000000000000000000000000000000000600052603260045260246000fd5b60200260200101518152602001898481518110620001bf577f4e487b7100000000000000000000000000000000000000000000000000000000600052603260045260246000fd5b6020026020010151815260200189848151811062000206577f4e487b7100000000000000000000000000000000000000000000000000000000600052603260045260246000fd5b602002602001015181526020018884815181106200024d577f4e487b7100000000000000000000000000000000000000000000000000000000600052603260045260246000fd5b60200260200101518152509080600181540180825580915050600190039060005260206000209060060201600090919091909150600082015181600001556020820151816001019080519060200190620002a9929190620007ec565b506040820151816002019080519060200190620002c8929190620007ec565b50606082015181600301556080820151816004015560a08201518160050155505060006007828154811062000326577f4e487b7100000000000000000000000000000000000000000000000000000000600052603260045260246000fd5b90600052602060002090600602016040518060c0016040529081600082015481526020016001820180546200035b9062000daa565b80601f0160208091040260200160405190810160405280929190818152602001828054620003899062000daa565b8015620003da5780601f10620003ae57610100808354040283529160200191620003da565b820191906000526020600020905b815481529060010190602001808311620003bc57829003601f168201915b50505050508152602001600282018054620003f59062000daa565b80601f0160208091040260200160405190810160405280929190818152602001828054620004239062000daa565b8015620004745780601f10620004485761010080835404028352916020019162000474565b820191906000526020600020905b8154815290600101906020018083116200045657829003601f168201915b5050505050815260200160038201548152602001600482015481526020016005820154815250509050620004db604051806060016040528060258152602001620055d2602591398260200151836060015184604001516200070160201b6200196f1760201c565b508080620004e99062000e16565b915050620000da565b506040518060a0016040528085815260200184815260200183815260200183815260200182815250600860008201518160000190805190602001906200053a929190620007ec565b50602082015181600101908051906020019062000559929190620007ec565b50604082015181600201556060820151816003015560808201518160040155905050620006dc6040518060600160405280602a8152602001620055f7602a913960086000018054620005ab9062000daa565b80601f0160208091040260200160405190810160405280929190818152602001828054620005d99062000daa565b80156200062a5780601f10620005fe576101008083540402835291602001916200062a565b820191906000526020600020905b8154815290600101906020018083116200060c57829003601f168201915b505050505060086002015460086001018054620006479062000daa565b80601f0160208091040260200160405190810160405280929190818152602001828054620006759062000daa565b8015620006c65780601f106200069a57610100808354040283529160200191620006c6565b820191906000526020600020905b815481529060010190602001808311620006a857829003601f168201915b50505050506200070160201b6200196f1760201c565b620006f36006620007ad60201b62001a111760201c565b505050505050505062000f1c565b620007a7848484846040516024016200071e949392919062000c2f565b6040516020818303038152906040527f8d142cdd000000000000000000000000000000000000000000000000000000007bffffffffffffffffffffffffffffffffffffffffffffffffffffffff19166020820180517bffffffffffffffffffffffffffffffffffffffffffffffffffffffff8381831617835250505050620007c360201b60201c565b50505050565b6001816000016000828254019250508190555050565b60008151905060006a636f6e736f6c652e6c6f679050602083016000808483855afa5050505050565b828054620007fa9062000daa565b90600052602060002090601f0160209004810192826200081e57600085556200086a565b82601f106200083957805160ff19168380011785556200086a565b828001600101855582156200086a579182015b82811115620008695782518255916020019190600101906200084c565b5b5090506200087991906200087d565b5090565b5b80821115620008985760008160009055506001016200087e565b5090565b6000620008b3620008ad8462000cba565b62000c91565b90508083825260208201905082856020860282011115620008d357600080fd5b60005b858110156200092257815167ffffffffffffffff811115620008f757600080fd5b80860162000906898262000a40565b85526020850194506020840193505050600181019050620008d6565b5050509392505050565b6000620009436200093d8462000ce9565b62000c91565b905080838252602082019050828560208602820111156200096357600080fd5b60005b858110156200099757816200097c888262000a6d565b84526020840193506020830192505060018101905062000966565b5050509392505050565b6000620009b8620009b28462000d18565b62000c91565b905082815260208101848484011115620009d157600080fd5b620009de84828562000d74565b509392505050565b600082601f830112620009f857600080fd5b815162000a0a8482602086016200089c565b91505092915050565b600082601f83011262000a2557600080fd5b815162000a378482602086016200092c565b91505092915050565b600082601f83011262000a5257600080fd5b815162000a64848260208601620009a1565b91505092915050565b60008151905062000a7e8162000f02565b92915050565b600080600080600080600080610100898b03121562000aa257600080fd5b600089015167ffffffffffffffff81111562000abd57600080fd5b62000acb8b828c01620009e6565b985050602089015167ffffffffffffffff81111562000ae957600080fd5b62000af78b828c01620009e6565b975050604089015167ffffffffffffffff81111562000b1557600080fd5b62000b238b828c0162000a13565b965050606089015167ffffffffffffffff81111562000b4157600080fd5b62000b4f8b828c0162000a13565b955050608089015167ffffffffffffffff81111562000b6d57600080fd5b62000b7b8b828c0162000a40565b94505060a089015167ffffffffffffffff81111562000b9957600080fd5b62000ba78b828c0162000a40565b93505060c062000bba8b828c0162000a6d565b92505060e062000bcd8b828c0162000a6d565b9150509295985092959890939650565b600062000bea8262000d4e565b62000bf6818562000d59565b935062000c0881856020860162000d74565b62000c138162000ef1565b840191505092915050565b62000c298162000d6a565b82525050565b6000608082019050818103600083015262000c4b818762000bdd565b9050818103602083015262000c61818662000bdd565b905062000c72604083018562000c1e565b818103606083015262000c86818462000bdd565b905095945050505050565b600062000c9d62000cb0565b905062000cab828262000de0565b919050565b6000604051905090565b600067ffffffffffffffff82111562000cd85762000cd762000ec2565b5b602082029050602081019050919050565b600067ffffffffffffffff82111562000d075762000d0662000ec2565b5b602082029050602081019050919050565b600067ffffffffffffffff82111562000d365762000d3562000ec2565b5b62000d418262000ef1565b9050602081019050919050565b600081519050919050565b600082825260208201905092915050565b6000819050919050565b60005b8381101562000d9457808201518184015260208101905062000d77565b8381111562000da4576000848401525b50505050565b6000600282049050600182168062000dc357607f821691505b6020821081141562000dda5762000dd962000e93565b5b50919050565b62000deb8262000ef1565b810181811067ffffffffffffffff8211171562000e0d5762000e0c62000ec2565b5b80604052505050565b600062000e238262000d6a565b91507fffffffffffffffffffffffffffffffffffffffffffffffffffffffffffffffff82141562000e595762000e5862000e64565b5b600182019050919050565b7f4e487b7100000000000000000000000000000000000000000000000000000000600052601160045260246000fd5b7f4e487b7100000000000000000000000000000000000000000000000000000000600052602260045260246000fd5b7f4e487b7100000000000000000000000000000000000000000000000000000000600052604160045260246000fd5b6000601f19601f8301169050919050565b62000f0d8162000d6a565b811462000f1957600080fd5b50565b6146a68062000f2c6000396000f3fe608060405234801561001057600080fd5b50600436106101375760003560e01c80637df124a1116100b8578063b88d4fde1161007c578063b88d4fde1461036b578063c87b56dd14610387578063c8cf27f4146103b7578063d4f24c5b146103d5578063e985e9c5146103df578063f8b81ef71461040f57610137565b80637df124a1146102aa57806395d89b41146102da57806398da4c95146102f8578063a22cb4651461032d578063a9c326791461034957610137565b806323b872dd116100ff57806323b872dd146101f457806342842e0e146102105780636352211e1461022c57806370a082311461025c57806374bce80a1461028c57610137565b806301ffc9a71461013c5780630665f9611461016c57806306fdde031461018a578063081812fc146101a8578063095ea7b3146101d8575b600080fd5b61015660048036038101906101519190612de9565b61042b565b604051610163919061364e565b60405180910390f35b61017461050d565b60405161018191906139e7565b60405180910390f35b610192610669565b60405161019f9190613669565b60405180910390f35b6101c260048036038101906101bd9190612e3b565b6106fb565b6040516101cf919061358e565b60405180910390f35b6101f260048036038101906101ed9190612dad565b610780565b005b61020e60048036038101906102099190612ca7565b610898565b005b61022a60048036038101906102259190612ca7565b6108f8565b005b61024660048036038101906102419190612e3b565b610918565b604051610253919061358e565b60405180910390f35b61027660048036038101906102719190612c42565b6109ca565b6040516102839190613a2b565b60405180910390f35b610294610a82565b6040516102a1919061362c565b60405180910390f35b6102c460048036038101906102bf9190612c42565b610c2d565b6040516102d19190613a2b565b60405180910390f35b6102e2610c45565b6040516102ef9190613669565b60405180910390f35b610312600480360381019061030d9190612e3b565b610cd7565b60405161032496959493929190613a46565b60405180910390f35b61034760048036038101906103429190612d71565b610e23565b005b610351610e39565b604051610362959493929190613738565b60405180910390f35b61038560048036038101906103809190612cf6565b610f6d565b005b6103a1600480360381019061039c9190612e3b565b610fcf565b6040516103ae9190613669565b60405180910390f35b6103bf6111ea565b6040516103cc9190613a09565b60405180910390f35b6103dd6113c2565b005b6103f960048036038101906103f49190612c6b565b61174d565b604051610406919061364e565b60405180910390f35b61042960048036038101906104249190612e3b565b6117e1565b005b60007f80ac58cd000000000000000000000000000000000000000000000000000000007bffffffffffffffffffffffffffffffffffffffffffffffffffffffff1916827bffffffffffffffffffffffffffffffffffffffffffffffffffffffff191614806104f657507f5b5e139f000000000000000000000000000000000000000000000000000000007bffffffffffffffffffffffffffffffffffffffffffffffffffffffff1916827bffffffffffffffffffffffffffffffffffffffffffffffffffffffff1916145b80610506575061050582611a27565b5b9050919050565b610515612a62565b60086040518060a001604052908160008201805461053290613d8c565b80601f016020809104026020016040519081016040528092919081815260200182805461055e90613d8c565b80156105ab5780601f10610580576101008083540402835291602001916105ab565b820191906000526020600020905b81548152906001019060200180831161058e57829003601f168201915b505050505081526020016001820180546105c490613d8c565b80601f01602080910402602001604051908101604052809291908181526020018280546105f090613d8c565b801561063d5780601f106106125761010080835404028352916020019161063d565b820191906000526020600020905b81548152906001019060200180831161062057829003601f168201915b505050505081526020016002820154815260200160038201548152602001600482015481525050905090565b60606000805461067890613d8c565b80601f01602080910402602001604051908101604052809291908181526020018280546106a490613d8c565b80156106f15780601f106106c6576101008083540402835291602001916106f1565b820191906000526020600020905b8154815290600101906020018083116106d457829003601f168201915b5050505050905090565b600061070682611a91565b610745576040517f08c379a000000000000000000000000000000000000000000000000000000000815260040161073c90613987565b60405180910390fd5b6004600083815260200190815260200160002060009054906101000a900473ffffffffffffffffffffffffffffffffffffffff169050919050565b600061078b82610918565b90508073ffffffffffffffffffffffffffffffffffffffff168373ffffffffffffffffffffffffffffffffffffffff1614156107fc576040517f08c379a00000000000000000000000000000000000000000000000000000000081526004016107f3906139a7565b60405180910390fd5b8073ffffffffffffffffffffffffffffffffffffffff1661081b611afd565b73ffffffffffffffffffffffffffffffffffffffff16148061084a575061084981610844611afd565b61174d565b5b610889576040517f08c379a0000000000000000000000000000000000000000000000000000000008152600401610880906138e7565b60405180910390fd5b6108938383611b05565b505050565b6108a96108a3611afd565b82611bbe565b6108e8576040517f08c379a00000000000000000000000000000000000000000000000000000000081526004016108df906139c7565b60405180910390fd5b6108f3838383611c9c565b505050565b61091383838360405180602001604052806000815250610f6d565b505050565b6000806002600084815260200190815260200160002060009054906101000a900473ffffffffffffffffffffffffffffffffffffffff169050600073ffffffffffffffffffffffffffffffffffffffff168173ffffffffffffffffffffffffffffffffffffffff1614156109c1576040517f08c379a00000000000000000000000000000000000000000000000000000000081526004016109b890613927565b60405180910390fd5b80915050919050565b60008073ffffffffffffffffffffffffffffffffffffffff168273ffffffffffffffffffffffffffffffffffffffff161415610a3b576040517f08c379a0000000000000000000000000000000000000000000000000000000008152600401610a3290613907565b60405180910390fd5b600360008373ffffffffffffffffffffffffffffffffffffffff1673ffffffffffffffffffffffffffffffffffffffff168152602001908152602001600020549050919050565b60606007805480602002602001604051908101604052809291908181526020016000905b82821015610c2457838290600052602060002090600602016040518060c001604052908160008201548152602001600182018054610ae390613d8c565b80601f0160208091040260200160405190810160405280929190818152602001828054610b0f90613d8c565b8015610b5c5780601f10610b3157610100808354040283529160200191610b5c565b820191906000526020600020905b815481529060010190602001808311610b3f57829003601f168201915b50505050508152602001600282018054610b7590613d8c565b80601f0160208091040260200160405190810160405280929190818152602001828054610ba190613d8c565b8015610bee5780601f10610bc357610100808354040283529160200191610bee565b820191906000526020600020905b815481529060010190602001808311610bd157829003601f168201915b50505050508152602001600382015481526020016004820154815260200160058201548152505081526020019060010190610aa6565b50505050905090565b600e6020528060005260406000206000915090505481565b606060018054610c5490613d8c565b80601f0160208091040260200160405190810160405280929190818152602001828054610c8090613d8c565b8015610ccd5780601f10610ca257610100808354040283529160200191610ccd565b820191906000526020600020905b815481529060010190602001808311610cb057829003601f168201915b5050505050905090565b600d602052806000526040600020600091509050806000015490806001018054610d0090613d8c565b80601f0160208091040260200160405190810160405280929190818152602001828054610d2c90613d8c565b8015610d795780601f10610d4e57610100808354040283529160200191610d79565b820191906000526020600020905b815481529060010190602001808311610d5c57829003601f168201915b505050505090806002018054610d8e90613d8c565b80601f0160208091040260200160405190810160405280929190818152602001828054610dba90613d8c565b8015610e075780601f10610ddc57610100808354040283529160200191610e07565b820191906000526020600020905b815481529060010190602001808311610dea57829003601f168201915b5050505050908060030154908060040154908060050154905086565b610e35610e2e611afd565b8383611f03565b5050565b6008806000018054610e4a90613d8c565b80601f0160208091040260200160405190810160405280929190818152602001828054610e7690613d8c565b8015610ec35780601f10610e9857610100808354040283529160200191610ec3565b820191906000526020600020905b815481529060010190602001808311610ea657829003601f168201915b505050505090806001018054610ed890613d8c565b80601f0160208091040260200160405190810160405280929190818152602001828054610f0490613d8c565b8015610f515780601f10610f2657610100808354040283529160200191610f51565b820191906000526020600020905b815481529060010190602001808311610f3457829003601f168201915b5050505050908060020154908060030154908060040154905085565b610f7e610f78611afd565b83611bbe565b610fbd576040517f08c379a0000000000000000000000000000000000000000000000000000000008152600401610fb4906139c7565b60405180910390fd5b610fc984848484612070565b50505050565b60606000600d60008481526020019081526020016000206040518060c00160405290816000820154815260200160018201805461100b90613d8c565b80601f016020809104026020016040519081016040528092919081815260200182805461103790613d8c565b80156110845780601f1061105957610100808354040283529160200191611084565b820191906000526020600020905b81548152906001019060200180831161106757829003601f168201915b5050505050815260200160028201805461109d90613d8c565b80601f01602080910402602001604051908101604052809291908181526020018280546110c990613d8c565b80156111165780601f106110eb57610100808354040283529160200191611116565b820191906000526020600020905b8154815290600101906020018083116110f957829003601f168201915b5050505050815260200160038201548152602001600482015481526020016005820154815250509050600061114e82606001516120cc565b9050600061115f83608001516120cc565b905060006111708460a001516120cc565b905060006111b68560200151611185896120cc565b87604001518787876040516020016111a2969594939291906134c7565b604051602081830303815290604052612279565b90506000816040516020016111cb919061356c565b6040516020818303038152906040529050809650505050505050919050565b6111f2612a91565b6000600e60003373ffffffffffffffffffffffffffffffffffffffff1673ffffffffffffffffffffffffffffffffffffffff16815260200190815260200160002054905060008111156113b157600d60008281526020019081526020016000206040518060c00160405290816000820154815260200160018201805461127790613d8c565b80601f01602080910402602001604051908101604052809291908181526020018280546112a390613d8c565b80156112f05780601f106112c5576101008083540402835291602001916112f0565b820191906000526020600020905b8154815290600101906020018083116112d357829003601f168201915b5050505050815260200160028201805461130990613d8c565b80601f016020809104026020016040519081016040528092919081815260200182805461133590613d8c565b80156113825780601f1061135757610100808354040283529160200191611382565b820191906000526020600020905b81548152906001019060200180831161136557829003601f168201915b5050505050815260200160038201548152602001600482015481526020016005820154815250509150506113bf565b6113b9612a91565b80925050505b90565b6000600e60003373ffffffffffffffffffffffffffffffffffffffff1673ffffffffffffffffffffffffffffffffffffffff1681526020019081526020016000205490506000600d600083815260200190815260200160002090506114d56040518060600160405280603b81526020016145e1603b913982600101805461144890613d8c565b80601f016020809104026020016040519081016040528092919081815260200182805461147490613d8c565b80156114c15780601f10611496576101008083540402835291602001916114c1565b820191906000526020600020905b8154815290600101906020018083116114a457829003601f168201915b505050505083600301548460050154612437565b6115ad6040518060400160405280601b81526020017f426f73732025732068617320257320485020616e6420257320414400000000008152506008600001805461151e90613d8c565b80601f016020809104026020016040519081016040528092919081815260200182805461154a90613d8c565b80156115975780601f1061156c57610100808354040283529160200191611597565b820191906000526020600020905b81548152906001019060200180831161157a57829003601f168201915b5050505050600860020154600860040154612437565b60008160030154116115f4576040517f08c379a00000000000000000000000000000000000000000000000000000000081526004016115eb90613807565b60405180910390fd5b60006008600201541161163c576040517f08c379a000000000000000000000000000000000000000000000000000000000815260040161163390613947565b60405180910390fd5b8060050154600860020154101561165d57600060086002018190555061167c565b80600501546008600201546116729190613ca2565b6008600201819055505b6008600401548160030154101561169c57600081600301819055506116ba565b60086004015481600301546116b19190613ca2565b81600301819055505b6116e160405180606001604052806025815260200161457c602591396008600201546124d9565b61170760405180606001604052806027815260200161464a6027913982600301546124d9565b7f838ab28464562786a6c4ab2311964b82fa60bd9b14aa7e856af1f3f18d41a4146008600201548260030154604051611741929190613ab5565b60405180910390a15050565b6000600560008473ffffffffffffffffffffffffffffffffffffffff1673ffffffffffffffffffffffffffffffffffffffff16815260200190815260200160002060008373ffffffffffffffffffffffffffffffffffffffff1673ffffffffffffffffffffffffffffffffffffffff16815260200190815260200160002060009054906101000a900460ff16905092915050565b60006117ed6006612575565b90506117f93382612583565b60078281548110611833577f4e487b7100000000000000000000000000000000000000000000000000000000600052603260045260246000fd5b9060005260206000209060060201600d600083815260200190815260200160002060008201548160000155600182018160010190805461187290613d8c565b61187d929190612ac7565b50600282018160020190805461189290613d8c565b61189d929190612ac7565b506003820154816003015560048201548160040155600582015481600501559050506118e26040518060600160405280602e815260200161461c602e913982846125a1565b80600e60003373ffffffffffffffffffffffffffffffffffffffff1673ffffffffffffffffffffffffffffffffffffffff168152602001908152602001600020819055506119306006611a11565b7f4bc303fd457a97b4691b9af582ce71868a3d258638c8d4f8c60988a0f0bfb8cd338284604051611963939291906135f5565b60405180910390a15050565b611a0b84848484604051602401611989949392919061368b565b6040516020818303038152906040527f8d142cdd000000000000000000000000000000000000000000000000000000007bffffffffffffffffffffffffffffffffffffffffffffffffffffffff19166020820180517bffffffffffffffffffffffffffffffffffffffffffffffffffffffff8381831617835250505050612640565b50505050565b6001816000016000828254019250508190555050565b60007f01ffc9a7000000000000000000000000000000000000000000000000000000007bffffffffffffffffffffffffffffffffffffffffffffffffffffffff1916827bffffffffffffffffffffffffffffffffffffffffffffffffffffffff1916149050919050565b60008073ffffffffffffffffffffffffffffffffffffffff166002600084815260200190815260200160002060009054906101000a900473ffffffffffffffffffffffffffffffffffffffff1673ffffffffffffffffffffffffffffffffffffffff1614159050919050565b600033905090565b816004600083815260200190815260200160002060006101000a81548173ffffffffffffffffffffffffffffffffffffffff021916908373ffffffffffffffffffffffffffffffffffffffff160217905550808273ffffffffffffffffffffffffffffffffffffffff16611b7883610918565b73ffffffffffffffffffffffffffffffffffffffff167f8c5be1e5ebec7d5bd14f71427d1e84f3dd0314c0f7b2291e5b200ac8c7c3b92560405160405180910390a45050565b6000611bc982611a91565b611c08576040517f08c379a0000000000000000000000000000000000000000000000000000000008152600401611bff906138c7565b60405180910390fd5b6000611c1383610918565b90508073ffffffffffffffffffffffffffffffffffffffff168473ffffffffffffffffffffffffffffffffffffffff161480611c8257508373ffffffffffffffffffffffffffffffffffffffff16611c6a846106fb565b73ffffffffffffffffffffffffffffffffffffffff16145b80611c935750611c92818561174d565b5b91505092915050565b8273ffffffffffffffffffffffffffffffffffffffff16611cbc82610918565b73ffffffffffffffffffffffffffffffffffffffff1614611d12576040517f08c379a0000000000000000000000000000000000000000000000000000000008152600401611d0990613847565b60405180910390fd5b600073ffffffffffffffffffffffffffffffffffffffff168273ffffffffffffffffffffffffffffffffffffffff161415611d82576040517f08c379a0000000000000000000000000000000000000000000000000000000008152600401611d7990613887565b60405180910390fd5b611d8d838383612669565b611d98600082611b05565b6001600360008573ffffffffffffffffffffffffffffffffffffffff1673ffffffffffffffffffffffffffffffffffffffff1681526020019081526020016000206000828254611de89190613ca2565b925050819055506001600360008473ffffffffffffffffffffffffffffffffffffffff1673ffffffffffffffffffffffffffffffffffffffff1681526020019081526020016000206000828254611e3f9190613bc1565b92505081905550816002600083815260200190815260200160002060006101000a81548173ffffffffffffffffffffffffffffffffffffffff021916908373ffffffffffffffffffffffffffffffffffffffff160217905550808273ffffffffffffffffffffffffffffffffffffffff168473ffffffffffffffffffffffffffffffffffffffff167fddf252ad1be2c89b69c2b068fc378daa952ba7f163c4a11628f55a4df523b3ef60405160405180910390a4611efe83838361266e565b505050565b8173ffffffffffffffffffffffffffffffffffffffff168373ffffffffffffffffffffffffffffffffffffffff161415611f72576040517f08c379a0000000000000000000000000000000000000000000000000000000008152600401611f69906138a7565b60405180910390fd5b80600560008573ffffffffffffffffffffffffffffffffffffffff1673ffffffffffffffffffffffffffffffffffffffff16815260200190815260200160002060008473ffffffffffffffffffffffffffffffffffffffff1673ffffffffffffffffffffffffffffffffffffffff16815260200190815260200160002060006101000a81548160ff0219169083151502179055508173ffffffffffffffffffffffffffffffffffffffff168373ffffffffffffffffffffffffffffffffffffffff167f17307eab39ab6107e8899845ad3d59bd9653f200f220920489ca2b5937696c3183604051612063919061364e565b60405180910390a3505050565b61207b848484611c9c565b61208784848484612673565b6120c6576040517f08c379a00000000000000000000000000000000000000000000000000000000081526004016120bd90613827565b60405180910390fd5b50505050565b60606000821415612114576040518060400160405280600181526020017f30000000000000000000000000000000000000000000000000000000000000008152509050612274565b600082905060005b6000821461214657808061212f90613def565b915050600a8261213f9190613c17565b915061211c565b60008167ffffffffffffffff811115612188577f4e487b7100000000000000000000000000000000000000000000000000000000600052604160045260246000fd5b6040519080825280601f01601f1916602001820160405280156121ba5781602001600182028036833780820191505090505b5090505b6000851461226d576001826121d39190613ca2565b9150600a856121e29190613e38565b60306121ee9190613bc1565b60f81b81838151811061222a577f4e487b7100000000000000000000000000000000000000000000000000000000600052603260045260246000fd5b60200101907effffffffffffffffffffffffffffffffffffffffffffffffffffffffffffff1916908160001a905350600a856122669190613c17565b94506121be565b8093505050505b919050565b606060008251905060008114156122a25760405180602001604052806000815250915050612432565b600060036002836122b39190613bc1565b6122bd9190613c17565b60046122c99190613c48565b905060006020826122da9190613bc1565b67ffffffffffffffff811115612319577f4e487b7100000000000000000000000000000000000000000000000000000000600052604160045260246000fd5b6040519080825280601f01601f19166020018201604052801561234b5781602001600182028036833780820191505090505b50905060006040518060600160405280604081526020016145a1604091399050600181016020830160005b868110156123ef5760038101905062ffffff818a015116603f8160121c168401518060081b905060ff603f83600c1c1686015116810190508060081b905060ff603f8360061c1686015116810190508060081b905060ff603f831686015116810190508060e01b90508084526004840193505050612376565b506003860660018114612409576002811461241957612424565b613d3d60f01b6002830352612424565b603d60f81b60018303525b508484525050819450505050505b919050565b6124d38484848460405160240161245194939291906136e5565b6040516020818303038152906040527fd5cf17d0000000000000000000000000000000000000000000000000000000007bffffffffffffffffffffffffffffffffffffffffffffffffffffffff19166020820180517bffffffffffffffffffffffffffffffffffffffffffffffffffffffff8381831617835250505050612640565b50505050565b61257182826040516024016124ef929190613799565b6040516020818303038152906040527f9710a9d0000000000000000000000000000000000000000000000000000000007bffffffffffffffffffffffffffffffffffffffffffffffffffffffff19166020820180517bffffffffffffffffffffffffffffffffffffffffffffffffffffffff8381831617835250505050612640565b5050565b600081600001549050919050565b61259d82826040518060200160405280600081525061280a565b5050565b61263b8383836040516024016125b9939291906137c9565b6040516020818303038152906040527f969cdd03000000000000000000000000000000000000000000000000000000007bffffffffffffffffffffffffffffffffffffffffffffffffffffffff19166020820180517bffffffffffffffffffffffffffffffffffffffffffffffffffffffff8381831617835250505050612640565b505050565b60008151905060006a636f6e736f6c652e6c6f679050602083016000808483855afa5050505050565b505050565b505050565b60006126948473ffffffffffffffffffffffffffffffffffffffff16612865565b156127fd578373ffffffffffffffffffffffffffffffffffffffff1663150b7a026126bd611afd565b8786866040518563ffffffff1660e01b81526004016126df94939291906135a9565b602060405180830381600087803b1580156126f957600080fd5b505af192505050801561272a57506040513d601f19601f820116820180604052508101906127279190612e12565b60015b6127ad573d806000811461275a576040519150601f19603f3d011682016040523d82523d6000602084013e61275f565b606091505b506000815114156127a5576040517f08c379a000000000000000000000000000000000000000000000000000000000815260040161279c90613827565b60405180910390fd5b805181602001fd5b63150b7a0260e01b7bffffffffffffffffffffffffffffffffffffffffffffffffffffffff1916817bffffffffffffffffffffffffffffffffffffffffffffffffffffffff191614915050612802565b600190505b949350505050565b6128148383612888565b6128216000848484612673565b612860576040517f08c379a000000000000000000000000000000000000000000000000000000000815260040161285790613827565b60405180910390fd5b505050565b6000808273ffffffffffffffffffffffffffffffffffffffff163b119050919050565b600073ffffffffffffffffffffffffffffffffffffffff168273ffffffffffffffffffffffffffffffffffffffff1614156128f8576040517f08c379a00000000000000000000000000000000000000000000000000000000081526004016128ef90613967565b60405180910390fd5b61290181611a91565b15612941576040517f08c379a000000000000000000000000000000000000000000000000000000000815260040161293890613867565b60405180910390fd5b61294d60008383612669565b6001600360008473ffffffffffffffffffffffffffffffffffffffff1673ffffffffffffffffffffffffffffffffffffffff168152602001908152602001600020600082825461299d9190613bc1565b92505081905550816002600083815260200190815260200160002060006101000a81548173ffffffffffffffffffffffffffffffffffffffff021916908373ffffffffffffffffffffffffffffffffffffffff160217905550808273ffffffffffffffffffffffffffffffffffffffff16600073ffffffffffffffffffffffffffffffffffffffff167fddf252ad1be2c89b69c2b068fc378daa952ba7f163c4a11628f55a4df523b3ef60405160405180910390a4612a5e6000838361266e565b5050565b6040518060a0016040528060608152602001606081526020016000815260200160008152602001600081525090565b6040518060c001604052806000815260200160608152602001606081526020016000815260200160008152602001600081525090565b828054612ad390613d8c565b90600052602060002090601f016020900481019282612af55760008555612b43565b82601f10612b065780548555612b43565b82800160010185558215612b4357600052602060002091601f016020900482015b82811115612b42578254825591600101919060010190612b27565b5b509050612b509190612b54565b5090565b5b80821115612b6d576000816000905550600101612b55565b5090565b6000612b84612b7f84613b03565b613ade565b905082815260208101848484011115612b9c57600080fd5b612ba7848285613d4a565b509392505050565b600081359050612bbe8161451f565b92915050565b600081359050612bd381614536565b92915050565b600081359050612be88161454d565b92915050565b600081519050612bfd8161454d565b92915050565b600082601f830112612c1457600080fd5b8135612c24848260208601612b71565b91505092915050565b600081359050612c3c81614564565b92915050565b600060208284031215612c5457600080fd5b6000612c6284828501612baf565b91505092915050565b60008060408385031215612c7e57600080fd5b6000612c8c85828601612baf565b9250506020612c9d85828601612baf565b9150509250929050565b600080600060608486031215612cbc57600080fd5b6000612cca86828701612baf565b9350506020612cdb86828701612baf565b9250506040612cec86828701612c2d565b9150509250925092565b60008060008060808587031215612d0c57600080fd5b6000612d1a87828801612baf565b9450506020612d2b87828801612baf565b9350506040612d3c87828801612c2d565b925050606085013567ffffffffffffffff811115612d5957600080fd5b612d6587828801612c03565b91505092959194509250565b60008060408385031215612d8457600080fd5b6000612d9285828601612baf565b9250506020612da385828601612bc4565b9150509250929050565b60008060408385031215612dc057600080fd5b6000612dce85828601612baf565b9250506020612ddf85828601612c2d565b9150509250929050565b600060208284031215612dfb57600080fd5b6000612e0984828501612bd9565b91505092915050565b600060208284031215612e2457600080fd5b6000612e3284828501612bee565b91505092915050565b600060208284031215612e4d57600080fd5b6000612e5b84828501612c2d565b91505092915050565b6000612e708383613389565b905092915050565b612e8181613cd6565b82525050565b6000612e9282613b44565b612e9c8185613b72565b935083602082028501612eae85613b34565b8060005b85811015612eea5784840389528151612ecb8582612e64565b9450612ed683613b65565b925060208a01995050600181019050612eb2565b50829750879550505050505092915050565b612f0581613ce8565b82525050565b6000612f1682613b4f565b612f208185613b83565b9350612f30818560208601613d59565b612f3981613f25565b840191505092915050565b6000612f4f82613b5a565b612f598185613b94565b9350612f69818560208601613d59565b612f7281613f25565b840191505092915050565b6000612f8882613b5a565b612f928185613ba5565b9350612fa2818560208601613d59565b612fab81613f25565b840191505092915050565b6000612fc182613b5a565b612fcb8185613bb6565b9350612fdb818560208601613d59565b80840191505092915050565b6000612ff4601e83613ba5565b9150612fff82613f36565b602082019050919050565b6000613017600b83613bb6565b915061302282613f5f565b600b82019050919050565b600061303a602c83613bb6565b915061304582613f88565b602c82019050919050565b600061305d603283613ba5565b915061306882613fd7565b604082019050919050565b6000613080602583613ba5565b915061308b82614026565b604082019050919050565b60006130a3601c83613ba5565b91506130ae82614075565b602082019050919050565b60006130c6600e83613bb6565b91506130d18261409e565b600e82019050919050565b60006130e9602483613ba5565b91506130f4826140c7565b604082019050919050565b600061310c601983613ba5565b915061311782614116565b602082019050919050565b600061312f602c83613ba5565b915061313a8261413f565b604082019050919050565b6000613152603883613ba5565b915061315d8261418e565b604082019050919050565b6000613175602a83613ba5565b9150613180826141dd565b604082019050919050565b6000613198602983613ba5565b91506131a38261422c565b604082019050919050565b60006131bb603c83613bb6565b91506131c68261427b565b603c82019050919050565b60006131de601f83613ba5565b91506131e9826142ca565b602082019050919050565b6000613201606283613bb6565b915061320c826142f3565b606282019050919050565b6000613224600483613bb6565b915061322f8261438e565b600482019050919050565b6000613247602083613ba5565b9150613252826143b7565b602082019050919050565b600061326a602c83613ba5565b9150613275826143e0565b604082019050919050565b600061328d600a83613bb6565b91506132988261442f565b600a82019050919050565b60006132b0602183613ba5565b91506132bb82614458565b604082019050919050565b60006132d3601d83613bb6565b91506132de826144a7565b601d82019050919050565b60006132f6603183613ba5565b9150613301826144d0565b604082019050919050565b600060a08301600083015184820360008601526133298282612f44565b915050602083015184820360208601526133438282612f44565b915050604083015161335860408601826134a9565b50606083015161336b60608601826134a9565b50608083015161337e60808601826134a9565b508091505092915050565b600060c0830160008301516133a160008601826134a9565b50602083015184820360208601526133b98282612f44565b915050604083015184820360408601526133d38282612f44565b91505060608301516133e860608601826134a9565b5060808301516133fb60808601826134a9565b5060a083015161340e60a08601826134a9565b508091505092915050565b600060c08301600083015161343160008601826134a9565b50602083015184820360208601526134498282612f44565b915050604083015184820360408601526134638282612f44565b915050606083015161347860608601826134a9565b50608083015161348b60808601826134a9565b5060a083015161349e60a08601826134a9565b508091505092915050565b6134b281613d40565b82525050565b6134c181613d40565b82525050565b60006134d282613280565b91506134de8289612fb6565b91506134e98261300a565b91506134f58288612fb6565b9150613500826131f4565b915061350c8287612fb6565b9150613517826131ae565b91506135238286612fb6565b915061352e826130b9565b915061353a8285612fb6565b91506135458261302d565b91506135518284612fb6565b915061355c82613217565b9150819050979650505050505050565b6000613577826132c6565b91506135838284612fb6565b915081905092915050565b60006020820190506135a36000830184612e78565b92915050565b60006080820190506135be6000830187612e78565b6135cb6020830186612e78565b6135d860408301856134b8565b81810360608301526135ea8184612f0b565b905095945050505050565b600060608201905061360a6000830186612e78565b61361760208301856134b8565b61362460408301846134b8565b949350505050565b600060208201905081810360008301526136468184612e87565b905092915050565b60006020820190506136636000830184612efc565b92915050565b600060208201905081810360008301526136838184612f7d565b905092915050565b600060808201905081810360008301526136a58187612f7d565b905081810360208301526136b98186612f7d565b90506136c860408301856134b8565b81810360608301526136da8184612f7d565b905095945050505050565b600060808201905081810360008301526136ff8187612f7d565b905081810360208301526137138186612f7d565b905061372260408301856134b8565b61372f60608301846134b8565b95945050505050565b600060a08201905081810360008301526137528188612f7d565b905081810360208301526137668187612f7d565b905061377560408301866134b8565b61378260608301856134b8565b61378f60808301846134b8565b9695505050505050565b600060408201905081810360008301526137b38185612f7d565b90506137c260208301846134b8565b9392505050565b600060608201905081810360008301526137e38186612f7d565b90506137f260208301856134b8565b6137ff60408301846134b8565b949350505050565b6000602082019050818103600083015261382081612fe7565b9050919050565b6000602082019050818103600083015261384081613050565b9050919050565b6000602082019050818103600083015261386081613073565b9050919050565b6000602082019050818103600083015261388081613096565b9050919050565b600060208201905081810360008301526138a0816130dc565b9050919050565b600060208201905081810360008301526138c0816130ff565b9050919050565b600060208201905081810360008301526138e081613122565b9050919050565b6000602082019050818103600083015261390081613145565b9050919050565b6000602082019050818103600083015261392081613168565b9050919050565b600060208201905081810360008301526139408161318b565b9050919050565b60006020820190508181036000830152613960816131d1565b9050919050565b600060208201905081810360008301526139808161323a565b9050919050565b600060208201905081810360008301526139a08161325d565b9050919050565b600060208201905081810360008301526139c0816132a3565b9050919050565b600060208201905081810360008301526139e0816132e9565b9050919050565b60006020820190508181036000830152613a01818461330c565b905092915050565b60006020820190508181036000830152613a238184613419565b905092915050565b6000602082019050613a4060008301846134b8565b92915050565b600060c082019050613a5b60008301896134b8565b8181036020830152613a6d8188612f7d565b90508181036040830152613a818187612f7d565b9050613a9060608301866134b8565b613a9d60808301856134b8565b613aaa60a08301846134b8565b979650505050505050565b6000604082019050613aca60008301856134b8565b613ad760208301846134b8565b9392505050565b6000613ae8613af9565b9050613af48282613dbe565b919050565b6000604051905090565b600067ffffffffffffffff821115613b1e57613b1d613ef6565b5b613b2782613f25565b9050602081019050919050565b6000819050602082019050919050565b600081519050919050565b600081519050919050565b600081519050919050565b6000602082019050919050565b600082825260208201905092915050565b600082825260208201905092915050565b600082825260208201905092915050565b600082825260208201905092915050565b600081905092915050565b6000613bcc82613d40565b9150613bd783613d40565b9250827fffffffffffffffffffffffffffffffffffffffffffffffffffffffffffffffff03821115613c0c57613c0b613e69565b5b828201905092915050565b6000613c2282613d40565b9150613c2d83613d40565b925082613c3d57613c3c613e98565b5b828204905092915050565b6000613c5382613d40565b9150613c5e83613d40565b9250817fffffffffffffffffffffffffffffffffffffffffffffffffffffffffffffffff0483118215151615613c9757613c96613e69565b5b828202905092915050565b6000613cad82613d40565b9150613cb883613d40565b925082821015613ccb57613cca613e69565b5b828203905092915050565b6000613ce182613d20565b9050919050565b60008115159050919050565b60007fffffffff0000000000000000000000000000000000000000000000000000000082169050919050565b600073ffffffffffffffffffffffffffffffffffffffff82169050919050565b6000819050919050565b82818337600083830152505050565b60005b83811015613d77578082015181840152602081019050613d5c565b83811115613d86576000848401525b50505050565b60006002820490506001821680613da457607f821691505b60208210811415613db857613db7613ec7565b5b50919050565b613dc782613f25565b810181811067ffffffffffffffff82111715613de657613de5613ef6565b5b80604052505050565b6000613dfa82613d40565b91507fffffffffffffffffffffffffffffffffffffffffffffffffffffffffffffffff821415613e2d57613e2c613e69565b5b600182019050919050565b6000613e4382613d40565b9150613e4e83613d40565b925082613e5e57613e5d613e98565b5b828206905092915050565b7f4e487b7100000000000000000000000000000000000000000000000000000000600052601160045260246000fd5b7f4e487b7100000000000000000000000000000000000000000000000000000000600052601260045260246000fd5b7f4e487b7100000000000000000000000000000000000000000000000000000000600052602260045260246000fd5b7f4e487b7100000000000000000000000000000000000000000000000000000000600052604160045260246000fd5b6000601f19601f8301169050919050565b7f4572726f723a20796f757220636861726163746572206973206479696e670000600082015250565b7f202d2d204e465420233a20000000000000000000000000000000000000000000600082015250565b7f7d2c207b2274726169745f74797065223a202241747461636b2044616d61676560008201527f222c202276616c7565223a200000000000000000000000000000000000000000602082015250565b7f4552433732313a207472616e7366657220746f206e6f6e20455243373231526560008201527f63656976657220696d706c656d656e7465720000000000000000000000000000602082015250565b7f4552433732313a207472616e736665722066726f6d20696e636f72726563742060008201527f6f776e6572000000000000000000000000000000000000000000000000000000602082015250565b7f4552433732313a20746f6b656e20616c7265616479206d696e74656400000000600082015250565b7f2c20226d61785f76616c7565223a000000000000000000000000000000000000600082015250565b7f4552433732313a207472616e7366657220746f20746865207a65726f2061646460008201527f7265737300000000000000000000000000000000000000000000000000000000602082015250565b7f4552433732313a20617070726f766520746f2063616c6c657200000000000000600082015250565b7f4552433732313a206f70657261746f7220717565727920666f72206e6f6e657860008201527f697374656e7420746f6b656e0000000000000000000000000000000000000000602082015250565b7f4552433732313a20617070726f76652063616c6c6572206973206e6f74206f7760008201527f6e6572206e6f7220617070726f76656420666f7220616c6c0000000000000000602082015250565b7f4552433732313a2062616c616e636520717565727920666f7220746865207a6560008201527f726f206164647265737300000000000000000000000000000000000000000000602082015250565b7f4552433732313a206f776e657220717565727920666f72206e6f6e657869737460008201527f656e7420746f6b656e0000000000000000000000000000000000000000000000602082015250565b7f222c202261747472696275746573223a205b7b202274726169745f747970652260008201527f3a20224865616c746820506f696e7473222c202276616c7565223a2000000000602082015250565b7f4572726f723a20626f737320697320616c726561647920646566656174656400600082015250565b7f222c20226465736372697074696f6e223a20225468697320697320616e204e4660008201527f542074686174206c6574732070656f706c6520706c617920696e20746865206760208201527f616d65204d657461766572736520536c6179657221222c2022696d616765223a60408201527f2022000000000000000000000000000000000000000000000000000000000000606082015250565b7f7d205d7d00000000000000000000000000000000000000000000000000000000600082015250565b7f4552433732313a206d696e7420746f20746865207a65726f2061646472657373600082015250565b7f4552433732313a20617070726f76656420717565727920666f72206e6f6e657860008201527f697374656e7420746f6b656e0000000000000000000000000000000000000000602082015250565b7f7b226e616d65223a202200000000000000000000000000000000000000000000600082015250565b7f4552433732313a20617070726f76616c20746f2063757272656e74206f776e6560008201527f7200000000000000000000000000000000000000000000000000000000000000602082015250565b7f646174613a6170706c69636174696f6e2f6a736f6e3b6261736536342c000000600082015250565b7f4552433732313a207472616e736665722063616c6c6572206973206e6f74206f60008201527f776e6572206e6f7220617070726f766564000000000000000000000000000000602082015250565b61452881613cd6565b811461453357600080fd5b50565b61453f81613ce8565b811461454a57600080fd5b50565b61455681613cf4565b811461456157600080fd5b50565b61456d81613d40565b811461457857600080fd5b5056fe506c617965722061747461636b656420626f73732e204e657720626f73732068703a2025734142434445464748494a4b4c4d4e4f505152535455565758595a6162636465666768696a6b6c6d6e6f707172737475767778797a303132333435363738392b2f506c6179657220772f206368617261637465722025732061626f757420746f2061747461636b2e2048617320257320485020616e642025732041444d696e746564204e465420772f20746f6b656e496420257320616e6420636861726163746572496e646578202573426f73732061747461636b656420706c617965722e204e657720706c617965722068703a202573a26469706673582212207638b15aafbd039384e39fb325dbf714fce69a8f080027c445fed9439ea9593e64736f6c63430008040033446f6e6520696e697469616c697a696e6720257320772f2048502025732c20696d67202573446f6e6520696e697469616c697a696e6720626f737320257320772f2048502025732c20696d67202573",
	"linkReferences": {},
	"deployedLinkReferences": {}
}